{
  "contractName": "Verifiers",
  "abi": [
    {
      "inputs": [
        {
          "internalType": "contract MinAgeVerifier",
          "name": "_minAgeVerifier",
          "type": "address"
        }
      ],
      "stateMutability": "nonpayable",
      "type": "constructor"
    },
    {
      "inputs": [],
      "name": "minAgeVerifier",
      "outputs": [
        {
          "internalType": "contract MinAgeVerifier",
          "name": "",
          "type": "address"
        }
      ],
      "stateMutability": "view",
      "type": "function"
    }
  ],
  "bytecode": "0x608060405234801561001057600080fd5b506040516102273803806102278339818101604052810190610032919061008d565b806000806101000a81548173ffffffffffffffffffffffffffffffffffffffff021916908373ffffffffffffffffffffffffffffffffffffffff16021790555050610111565b600081519050610087816100fa565b92915050565b60006020828403121561009f57600080fd5b60006100ad84828501610078565b91505092915050565b60006100c1826100da565b9050919050565b60006100d3826100b6565b9050919050565b600073ffffffffffffffffffffffffffffffffffffffff82169050919050565b610103816100c8565b811461010e57600080fd5b50565b610107806101206000396000f3fe6080604052348015600f57600080fd5b506004361060285760003560e01c8063572763c814602d575b600080fd5b60336047565b604051603e91906078565b60405180910390f35b60008054906101000a900473ffffffffffffffffffffffffffffffffffffffff1681565b60728160b1565b82525050565b6000602082019050608b6000830184606b565b92915050565b600073ffffffffffffffffffffffffffffffffffffffff82169050919050565b600060ba8260c1565b9050919050565b600060ca826091565b905091905056fea26469706673582212206d278cac988bfbaa844fa7d0542a19c6d84de6c28070a8b7f15aa0aa58bc998d64736f6c63430008000033",
  "immutableReferences": {},
  "source": "// SPDX-License-Identifier: MIT\npragma solidity >=0.4.22 <0.9.0;\n\nimport \"./MinAgeVerifier.sol\";\n\ncontract Verifiers {\n\tMinAgeVerifier public minAgeVerifier;\n\n\tconstructor(MinAgeVerifier _minAgeVerifier) public {\n\t\tminAgeVerifier = _minAgeVerifier;\n\t}\n}",
  "sourcePath": "/Users/rob/git/zok-pdapps/dapp/contracts/Verifiers.sol",
  "compiler": {
    "name": "solc",
    "version": "0.8.0+commit.c7dfd78e.Emscripten.clang"
  },
  "schemaVersion": "3.3.4",
  "updatedAt": "2022-03-22T16:35:30.269Z",
  "networkType": "ethereum",
  "devdoc": {
    "kind": "dev",
    "methods": {},
    "version": 1
  },
  "userdoc": {
    "kind": "user",
    "methods": {},
    "version": 1
  }
}