{
  "contractName": "Voting",
  "abi": [
    {
      "inputs": [
        {
          "internalType": "contract Verifiers",
          "name": "_verifiers",
          "type": "address"
        }
      ],
      "stateMutability": "nonpayable",
      "type": "constructor"
    },
    {
      "inputs": [
        {
          "internalType": "uint256",
          "name": "_vote",
          "type": "uint256"
        },
        {
          "components": [
            {
              "components": [
                {
                  "internalType": "uint256",
                  "name": "X",
                  "type": "uint256"
                },
                {
                  "internalType": "uint256",
                  "name": "Y",
                  "type": "uint256"
                }
              ],
              "internalType": "struct Pairing.G1Point",
              "name": "a",
              "type": "tuple"
            },
            {
              "components": [
                {
                  "internalType": "uint256[2]",
                  "name": "X",
                  "type": "uint256[2]"
                },
                {
                  "internalType": "uint256[2]",
                  "name": "Y",
                  "type": "uint256[2]"
                }
              ],
              "internalType": "struct Pairing.G2Point",
              "name": "b",
              "type": "tuple"
            },
            {
              "components": [
                {
                  "internalType": "uint256",
                  "name": "X",
                  "type": "uint256"
                },
                {
                  "internalType": "uint256",
                  "name": "Y",
                  "type": "uint256"
                }
              ],
              "internalType": "struct Pairing.G1Point",
              "name": "c",
              "type": "tuple"
            }
          ],
          "internalType": "struct MinAgeVerifier.Proof",
          "name": "_proof",
          "type": "tuple"
        },
        {
          "internalType": "uint256[2]",
          "name": "_input",
          "type": "uint256[2]"
        }
      ],
      "name": "vote",
      "outputs": [
        {
          "internalType": "address",
          "name": "addr",
          "type": "address"
        },
        {
          "internalType": "uint256[2]",
          "name": "input",
          "type": "uint256[2]"
        },
        {
          "components": [
            {
              "components": [
                {
                  "internalType": "uint256",
                  "name": "X",
                  "type": "uint256"
                },
                {
                  "internalType": "uint256",
                  "name": "Y",
                  "type": "uint256"
                }
              ],
              "internalType": "struct Pairing.G1Point",
              "name": "a",
              "type": "tuple"
            },
            {
              "components": [
                {
                  "internalType": "uint256[2]",
                  "name": "X",
                  "type": "uint256[2]"
                },
                {
                  "internalType": "uint256[2]",
                  "name": "Y",
                  "type": "uint256[2]"
                }
              ],
              "internalType": "struct Pairing.G2Point",
              "name": "b",
              "type": "tuple"
            },
            {
              "components": [
                {
                  "internalType": "uint256",
                  "name": "X",
                  "type": "uint256"
                },
                {
                  "internalType": "uint256",
                  "name": "Y",
                  "type": "uint256"
                }
              ],
              "internalType": "struct Pairing.G1Point",
              "name": "c",
              "type": "tuple"
            }
          ],
          "internalType": "struct MinAgeVerifier.Proof",
          "name": "proof",
          "type": "tuple"
        },
        {
          "internalType": "bool",
          "name": "_isValid",
          "type": "bool"
        },
        {
          "internalType": "bool",
          "name": "_isAdult",
          "type": "bool"
        },
        {
          "internalType": "bool",
          "name": "_success",
          "type": "bool"
        },
        {
          "internalType": "uint256",
          "name": "diff",
          "type": "uint256"
        },
        {
          "internalType": "uint256",
          "name": "yrs18Ago",
          "type": "uint256"
        }
      ],
      "stateMutability": "nonpayable",
      "type": "function"
    }
  ],
  "bytecode": "0x608060405234801561001057600080fd5b50604051610add380380610add8339818101604052810190610032919061008e565b80600160006101000a81548173ffffffffffffffffffffffffffffffffffffffff021916908373ffffffffffffffffffffffffffffffffffffffff16021790555050610112565b600081519050610088816100fb565b92915050565b6000602082840312156100a057600080fd5b60006100ae84828501610079565b91505092915050565b60006100c2826100db565b9050919050565b60006100d4826100b7565b9050919050565b600073ffffffffffffffffffffffffffffffffffffffff82169050919050565b610104816100c9565b811461010f57600080fd5b50565b6109bc806101216000396000f3fe608060405234801561001057600080fd5b506004361061002b5760003560e01c806383317dd314610030575b600080fd5b61004a6004803603810190610045919061052f565b610067565b60405161005e989796959493929190610723565b60405180910390f35b60006100716102c4565b6100796102e6565b60008060008060006321d59f00426100919190610835565b905080896000600281106100ce577f4e487b7100000000000000000000000000000000000000000000000000000000600052603260045260246000fd5b6020020151116101275788600060028110610112577f4e487b7100000000000000000000000000000000000000000000000000000000600052603260045260246000fd5b6020020151816101229190610835565b610172565b8089600060028110610162577f4e487b7100000000000000000000000000000000000000000000000000000000600052603260045260246000fd5b60200201516101719190610835565b5b915062069780821094506000600160009054906101000a900473ffffffffffffffffffffffffffffffffffffffff1673ffffffffffffffffffffffffffffffffffffffff169050600160009054906101000a900473ffffffffffffffffffffffffffffffffffffffff1673ffffffffffffffffffffffffffffffffffffffff1698508a96508997508073ffffffffffffffffffffffffffffffffffffffff16636dae022f6040518163ffffffff1660e01b815260040160206040518083038186803b15801561024057600080fd5b505afa158015610254573d6000803e3d6000fd5b505050506040513d601f19601f820116820180604052508101906102789190610506565b94508580156102845750845b156102b6576000808d815260200190815260200160002060008154809291906102ac906108b1565b9190505550600193505b509397509397509397509397565b6040518060400160405280600290602082028036833780820191505090505090565b60405180606001604052806102f9610319565b8152602001610306610333565b8152602001610313610319565b81525090565b604051806040016040528060008152602001600081525090565b60405180604001604052806103466102c4565b81526020016103536102c4565b81525090565b600061036c610367846107d7565b6107a6565b9050808285602086028201111561038257600080fd5b60005b858110156103b2578161039888826104f1565b845260208401935060208301925050600181019050610385565b5050509392505050565b600082601f8301126103cd57600080fd5b60026103da848285610359565b91505092915050565b6000815190506103f281610958565b92915050565b60006040828403121561040a57600080fd5b61041460406107a6565b90506000610424848285016104f1565b6000830152506020610438848285016104f1565b60208301525092915050565b60006080828403121561045657600080fd5b61046060406107a6565b90506000610470848285016103bc565b6000830152506040610484848285016103bc565b60208301525092915050565b600061010082840312156104a357600080fd5b6104ad60606107a6565b905060006104bd848285016103f8565b60008301525060406104d184828501610444565b60208301525060c06104e5848285016103f8565b60408301525092915050565b6000813590506105008161096f565b92915050565b60006020828403121561051857600080fd5b6000610526848285016103e3565b91505092915050565b6000806000610160848603121561054557600080fd5b6000610553868287016104f1565b935050602061056486828701610490565b925050610120610576868287016103bc565b9150509250925092565b600061058c8383610705565b60208301905092915050565b6105a181610869565b82525050565b6105b081610807565b6105ba818461081f565b92506105c5826107fd565b8060005b838110156105f65781516105dd8782610580565b96506105e883610812565b9250506001810190506105c9565b505050505050565b61060781610807565b610611818461082a565b925061061c826107fd565b8060005b8381101561064d5781516106348782610580565b965061063f83610812565b925050600181019050610620565b505050505050565b61065e8161087b565b82525050565b60408201600082015161067a6000850182610705565b50602082015161068d6020850182610705565b50505050565b6080820160008201516106a960008501826105a7565b5060208201516106bc60408501826105a7565b50505050565b610100820160008201516106d96000850182610664565b5060208201516106ec6040850182610693565b5060408201516106ff60c0850182610664565b50505050565b61070e816108a7565b82525050565b61071d816108a7565b82525050565b600061020082019050610739600083018b610598565b610746602083018a6105fe565b61075360608301896106c2565b610761610160830188610655565b61076f610180830187610655565b61077d6101a0830186610655565b61078b6101c0830185610714565b6107996101e0830184610714565b9998505050505050505050565b6000604051905081810181811067ffffffffffffffff821117156107cd576107cc610929565b5b8060405250919050565b600067ffffffffffffffff8211156107f2576107f1610929565b5b602082029050919050565b6000819050919050565b600060029050919050565b6000602082019050919050565b600081905092915050565b600081905092915050565b6000610840826108a7565b915061084b836108a7565b92508282101561085e5761085d6108fa565b5b828203905092915050565b600061087482610887565b9050919050565b60008115159050919050565b600073ffffffffffffffffffffffffffffffffffffffff82169050919050565b6000819050919050565b60006108bc826108a7565b91507fffffffffffffffffffffffffffffffffffffffffffffffffffffffffffffffff8214156108ef576108ee6108fa565b5b600182019050919050565b7f4e487b7100000000000000000000000000000000000000000000000000000000600052601160045260246000fd5b7f4e487b7100000000000000000000000000000000000000000000000000000000600052604160045260246000fd5b6109618161087b565b811461096c57600080fd5b50565b610978816108a7565b811461098357600080fd5b5056fea26469706673582212200f85c058e39d8c66143fa5a8ee0f41ed913d69488ad2c8e50529748f5dbc03b064736f6c63430008000033",
  "immutableReferences": {},
  "source": "// SPDX-License-Identifier: MIT\npragma solidity >=0.4.22 <0.9.0;\npragma experimental ABIEncoderV2;\n\nimport \"./Verifiers.sol\";\nimport \"./MinAgeVerifier.sol\";\n\ncontract Voting {\n\tmapping(uint256 => uint256) votes;\n\tVerifiers verifiers;\n\n\tconstructor(Verifiers _verifiers) public {\n\t\tverifiers = _verifiers;\n\t}\n\n\tfunction vote(uint256 _vote, MinAgeVerifier.Proof memory _proof, uint[2] memory _input) public returns (address addr, uint[2] memory input, MinAgeVerifier.Proof memory proof, bool _isValid, bool _isAdult, bool _success, uint256 diff, uint256 yrs18Ago) {\n\t\tyrs18Ago = block.timestamp - (365 days * 18);\n\n\t\tdiff = (_input[0] > yrs18Ago ? _input[0] - yrs18Ago : yrs18Ago - _input[0]);\n\n\t\t_isValid = diff < 5 * 60 * 60 * 24; // make sure the comparison timestamp is actually 18 years ago (+- 5 days for longer Februaries)\n\n\t\tMinAgeVerifier minAgeVerifier = MinAgeVerifier(verifiers.minAgeVerifier.address);\n\t\taddr = verifiers.minAgeVerifier.address;\n\n\t\tproof = _proof;\n\t\tinput = _input;\n\n\t\t_isAdult = minAgeVerifier.verifyTx();\n\n\t\tif(_isValid && _isAdult) {\n\t\t\tvotes[_vote]++;\n\t\t\t_success = true;\n\t\t}\n\t}\n}",
  "sourcePath": "/Users/rob/git/zok-pdapps/dapp/contracts/Voting.sol",
  "compiler": {
    "name": "solc",
    "version": "0.8.0+commit.c7dfd78e.Emscripten.clang"
  },
  "schemaVersion": "3.3.4",
  "updatedAt": "2022-03-22T16:32:40.024Z",
  "devdoc": {
    "kind": "dev",
    "methods": {},
    "version": 1
  },
  "userdoc": {
    "kind": "user",
    "methods": {},
    "version": 1
  }
}